:020000040800F2
:10000000780400209D01000881180008AD16000842
:100010007D1800080D050008391A000800000000CE
:100020000000000000000000000000008918000827
:100030001105000800000000851800088D18000850
:10004000B7010008B7010008B7010008B7010008B0
:10005000B7010008B7010008B7010008B7010008A0
:10006000B7010008B7010008B7010008B701000890
:10007000B7010008B7010008B7010008B701000880
:10008000B7010008B7010008B7010008B701000870
:10009000B7010008B7010008B7010008B701000860
:1000A000B7010008F5180008B7010008B7010008FB
:1000B000B7010008B7010008B7010008B701000840
:1000C000B7010008B7010008B7010008B701000830
:1000D000B7010008B7010008B7010008B701000820
:1000E000B7010008B7010008B7010008B701000810
:1000F000B7010008B7010008B7010008B701000800
:10010000B7010008B7010008B7010008B7010008EF
:10011000B7010008B7010008B7010008B7010008DF
:10012000B7010008B7010008B7010008B7010008CF
:10013000B70100080000000000000000B70100083F
:10014000B7010008B7010008B7010008B7010008AF
:10015000B7010008B7010008B7010008B70100089F
:10016000B7010008B7010008B7010008B70100088F
:10017000B7010008B70100080000000000000000FF
:10018000B7010008B7010008DFF80CD000F0ACF9A7
:1001900000480047411A00087804002006488047BC
:1001A00006480047FEE7FEE7FEE7FEE7FEE7FEE75C
:1001B000FEE7FEE7FEE7FEE79D180008890100085C
:1001C000B5EEC00AF1EE10FA07D2DFED1E0AB4EE6A
:1001D000E00AF1EE10FAA8BF7047DFED1B0AB5EE9A
:1001E000C00A60EE200ABDEEE01A11EE100AF1EE30
:1001F00010FA38BF401E00EE100A1549F7EE001A3B
:10020000B8EEC00A30EEC00ADFED100A60EE200A38
:10021000BCEEE00A10EE100AC0F3080000EE100A6F
:1002200001EB8000B8EE400A90ED011A70EEC00AB2
:1002300090ED000A71EEE01A21EE800A00EE810ACC
:1002400070470000CD024CB483F9223E0000004408
:10025000681B00082DE9F05F0546002092469B468A
:1002600088460646814640241BE0284641464746CC
:10027000224600F0CCF853465A46C01A914110D39A
:1002800011461846224600F0B3F82D1A67EB010814
:100290004F4622460120002100F0AAF817EB000982
:1002A0004E41201EA4F10104DFDC484631462A46B7
:1002B0004346BDE8F09F2DE9F04D81EA030404F0C8
:1002C000004B21F0004514464FF0000A23F0004196
:1002D00050EA050220D054EA01021DD0C5F30A57A6
:1002E0000246C5F31303C1F31300C1F30A5640F4E9
:1002F000801543F48013A7EB0608101BD64608F2BE
:10030000FD3873EB050002D308F1010801E09218F3
:100310005B41B8F1000F03DA00200146BDE8F08D23
:1003200000204FF48011064684460EE0171B73EB45
:10033000050705D3121B63EB050306434CEA010CCA
:1003400049084FEA300092185B4150EA0107EDD1AD
:1003500052EA030012D082EA040083EA050108434E
:1003600005D0101BAB4106D20122002306E000227B
:100370004FF0004302E06FF0010253101AEB060049
:100380004CEB085110EB0A0041EB0B01BDE8F04DBE
:1003900000F04DB830B5041E71F1000404DB4FF0DD
:1003A0000044404264EB0101141E73F1000405DBBC
:1003B0001C464FF00043524263EB0403801A9941FC
:1003C00001D2012030BD002030BD00F0004230F0ED
:1003D00000400AD0C10D01F56071C0F3160042EA79
:1003E0000151C20840071143704700200146704781
:1003F000202A04DB203A00FA02F1002070479140E5
:10040000C2F1200320FA03F3194390407047202AD9
:1004100004DB203A21FA02F00021704721FA02F3AE
:10042000D040C2F12002914008431946704710B5F0
:10043000141E73F1000408DA401C41F10001921807
:100440005B411A4301D120F0010010BD2DE9F04DB0
:1004500092469B4611B1B1FA81F202E0B0FA80F205
:1004600020329046FFF7C4FF04460F4640EA0A00D8
:1004700041EA0B0153465A46084313D0114653EA4A
:10048000010019D0C8F140025046FFF7C0FF0546F1
:100490000E46504659464246FFF7AAFF084305D08C
:1004A000012004E020463946BDE8F08D00200543D8
:1004B00046EAE0762C4337430A986305E40AA0EB4A
:1004C00008000022FD0A44EA47540A3002D5002001
:1004D0000146E9E7010510196941DDE90845001900
:1004E0006941BDE8F04DA2E7064C074D06E0E06823
:1004F00040F0010394E8070098471034AC42F6D36B
:10050000FFF746FE8C230008AC230008FEE700003E
:10051000704700002DE9F04F82B041F600430822F9
:1005200043F6004B4FF0010A00264FF0000CC4F2D6
:100530000203C4F2010B984200F13E4303F1FF7342
:1005400008BF07224FEAB327072F4FF0000738BF35
:100550004FEAB32200920A680AFA0CF812EA080F6E
:1005600010D100BF0CF1010C02370436BCF1100FA2
:1005700004BF02B0BDE8F08F0A680AFA0CF812EA6C
:10058000080FEFD0D1F804E04EF01002122A14D177
:1005900006F01C020F2303FA02F44FF6FC73C7F6B1
:1005A000FF7303EA5C0505442B6AA3430C6904FA54
:1005B00002F21A432A62D1F804E0032304680EF021
:1005C0000302BEF1120F03FA07F302FA07F224EA5C
:1005D00003046FEA030942EA0402026014D80AFA2B
:1005E0000EF212F0061F0FD08268CB6802EA0902F1
:1005F000BB401A438260CEF30012436802FA0CF249
:1006000023EA08031A434260C2688B6802EA0902BF
:10061000BB401A43C2605FEACE02A3D5002206F0B7
:100620000C050F24019243F64402AC40C4F20202CE
:100630001346126842F480421A601A6802F480423B
:1006400001922CF00302019B5A444FF60843CFF667
:10065000FF739E46D358A343009C04FA05F52B4331
:1006600042F80E30DBF800204D6842EA080315F42A
:10067000803F08BF22EA080315F4003FCBF80030A2
:10068000DBF8042042EA080308BF22EA080315F455
:10069000801FCBF80430DBF8082042EA080308BFCB
:1006A00022EA080343F60C4215F4001FC4F20102CB
:1006B000CBF808301446126842EA080308BF22EA61
:1006C000080323604EE7000040F20000C2F2000081
:1006D0008068704740F20000C2F200000178826832
:1006E000114481607047000080B543F60040C4F2B9
:1006F0000200016841F400710160016841F4806109
:100700000160016841F480710160032000F0B6F8D7
:10071000002000F005F800F025F8002080BD000062
:1007200070B540F2000604464FF47A71C2F200063A
:100730003078B1FBF0F040F20C01C2F20001096820
:10074000B1FBF0F000F0AAFB01250F2C08D838B956
:100750004FF0FF3021460022002500F05DF8746064
:10076000284670BD80B582B043F64001002001905C
:10077000C4F202014A6842F480424A604A6802F4C4
:1007800080420192019A0090086840F08050086011
:10079000086800F0805000900098032000F06EF888
:1007A0006FF00B000021002200F036F86FF00A0015
:1007B0000021002200F030F86FF009000021002233
:1007C00000F02AF86FF004000021002200F024F865
:1007D0006FF003000021002200F01EF86FF001000E
:1007E0000021002200F018F84FF0FF300021002215
:1007F00002B0BDE8804000F00FB8000000F01F011B
:100800000122400902FA01F14EF20012CEF200027A
:1008100042F820107047000080B500F160434EF6AA
:100820000C5E002803F5644C00F00F03CEF2000EBE
:10083000A3F104037344B8BF03F10C0CDEF800000D
:10084000C0F3022000F1040EC31E80F00700BEF1C9
:10085000070F4FF0010E38BF0023042828BF0420E3
:100860000EFA00F0013808400EFA03F10F319840FB
:100870001140084300018CF8000080BD4EF60C5179
:100880004FF6FF03CEF200010A681A4060F30A2215
:1008900042F0806040F0FD70086070472DE9F04143
:1008A0000D46044600286AD043F60807C4F2020742
:1008B000D7F8F80300F00F00A84207D287F8F853E2
:1008C000D7F8F80300F00F00A84258D1206810F0C4
:1008D000020F11D0410742BF396841F4E05139603D
:1008E000010742BF396841F4604139603968A26844
:1008F00021F0F00111433960C00737D1D7F8F80370
:1009000000F00F00A84207D987F8F853D7F8F8038A
:1009100000F00F00A84232D1206810F0040F05D07B
:100920003968E26821F4E05111433960000706D5C7
:100930003868216920F4604040EAC100386000F066
:1009400059F8396842F26C320024C0F60002C1F353
:100950000311515CC84040F20C01C2F20001086072
:100960000020FFF7DDFEE0B2BDE8F0816068811E87
:10097000022908D257F8081C11F0007F0AD101247F
:10098000E0B2BDE8F081012823D157F8081C11F42A
:10099000003FF4D0396821F0030108433860FFF7C5
:1009A00093FE06463868616800F00C00B0EB810FDA
:1009B000A4D041F2883800BFFFF786FE801B404577
:1009C0000DD83868616800F00C00B0EB810FF3D1EE
:1009D00094E757F8081C11F0020FD0D0DAE703248F
:1009E000E0B2BDE8F081000040F20C00C2F200006D
:1009F0000068704710B543F60404C4F2020460684E
:100A000000F00C0008280AD0042819BF42F2004068
:100A1000C0F2F40047F64000C0F27D1010BD22681D
:100A2000206847F640010023C0F27D1110F4800FCA
:100A300002F03F0204BF42F20041C0F2F40120681C
:100A4000C0F38810A1FB0001FFF704FC216802221B
:100A5000C1F3014102EB4101B0FBF1F010BD000018
:100A60002DE9F04381B00446E8B1207843F600094F
:100A700043F67007C4F20209C4F20207C00766D049
:100A800057F8680C00F00C00042811D1D9F80000C8
:100A900010F4003F5BD06068002858D10120C0B23C
:100AA00001B0BDE8F0830120C0B201B0BDE8F08321
:100AB00057F8680C00F00C00082804D157F86C0CAB
:100AC00010F4800FE2D16668B6F5803F08D0D9F8FF
:100AD0000000B6F5A02F1CD140F48020C9F800001A
:100AE000D9F8000040F48030C9F80000FFF7ECFDB1
:100AF000054600BFD9F8000010F4003F27D1FFF7EA
:100B0000E3FD401B6428F5D90320C0B201B0BDE865
:100B1000F08320F48030C9F80000D9F8000020F4F8
:100B20008020C9F80000FFF7CFFD0546002EE1D177
:100B3000D9F8000010F4003F09D0FFF7C5FD401BB5
:100B40006428F5D90320C0B201B0BDE8F083207855
:100B5000800741D557F8680C10F00C0F0AD057F8F1
:100B6000680C00F00C00082811D157F86C0C10F438
:100B7000800F0CD1D9F8000010F0020F23D0E068EC
:100B8000012820D00120C0B201B0BDE8F083E168A7
:100B90000020C4F24720002900F01E8101210160DD
:100BA000FFF792FD054600BFD9F8000010F0020FD4
:100BB00009D1FFF789FD401B0228F5D90320C0B2F7
:100BC00001B0BDE8F083D9F80000216920F0F800F9
:100BD00040EAC100C9F800002078000730D56069FC
:100BE000B0B100200121C4F24720C0F8801EFFF7F9
:100BF0006BFD0546786810F0020F21D1FFF764FD08
:100C0000401B0228F6D90320C0B201B0BDE8F08332
:100C100000200021C4F24720C0F8801EFFF754FDD9
:100C2000054600BF786810F0020F09D0FFF74CFDB1
:100C3000401B0228F6D90320C0B201B0BDE8F08302
:100C40002078400761D557F8300C4FF0000810F0BD
:100C5000805F0FD1CDF800804FF0010857F8300CBD
:100C600040F0805047F8300C57F8300C00F08050BE
:100C70000090009843F60006CFF6FE7659F806007D
:100C800010F4807F17D159F8060040F4807049F8BD
:100C90000600FFF719FD054659F8060010F4807F9D
:100CA00009D1FFF711FD401B0228F5D90320C0B27E
:100CB00001B0BDE8F083A668012E06D03868052E85
:100CC00040F0A08040F004003860386840F0010037
:100CD0003860FFF7F9FC0546386810F0020F0BD1B9
:100CE00041F28836FFF7F0FC401BB04200F2A880CA
:100CF000386810F0020FF5D0B8F1000F1EBF57F89A
:100D0000300C20F0805047F8300CA66956B157F8E7
:100D1000680C00F00C00082809D10120C0B201B015
:100D2000BDE8F0830020C0B201B0BDE8F08340F21E
:100D300000080020C4F24728C8F86000FFF7C4FC90
:100D40000546D9F80000022E00F0007032D148B1FB
:100D5000FFF7BAFC401B02287CD8D9F8000010F03D
:100D6000007FF5D104F11C064FCE0843D90340EAB9
:100D700082104FF6FF72914340EA0660A1F5803180
:100D8000084347F86C0C0120C8F86000FFF79CFC92
:100D90000446D9F8000010F0007F56D1FFF794FC0C
:100DA000001B022860D8D9F80010002011F0007F45
:100DB000F4D046E020B90020C0B201B0BDE8F08315
:100DC000FFF782FC401B032849D2D9F8001000200D
:100DD00011F0007FF4D134E000210160FFF774FCD2
:100DE000054600BFD9F8000010F0020F3FF4F4AE42
:100DF000FFF76AFC401B0228F4D90320C0B201B0FF
:100E0000BDE8F08320F001003860386820F004006D
:100E10003860FFF759FC0546002E7FF45DAF386857
:100E200010F0020F3FF468AF41F28836FFF74CFC38
:100E3000401BB0421DD8386810F0020FF6D15BE7B6
:100E40000320C0B201B0BDE8F0830020C0B201B001
:100E5000BDE8F0830320C0B201B0BDE8F0830320F9
:100E6000C0B201B0BDE8F0830320C0B201B0BDE85C
:100E7000F0830320C0B201B0BDE8F0834EF2100150
:100E80000428CEF200010A6822F0040308BF42F0F1
:100E900004030B607047000070470000411E0020F3
:100EA000B0EB116F1CBF012070474EF21002F0230F
:100EB000CEF2000251604EF62351CEF200010B70CB
:100EC0000721906011607047FFF7E6BF7047000090
:100ED0007047000090F83820012A02BF0221C8B2F2
:100EE0007047B0B501F10805D1E900CE3CCD896964
:100EF00023F47C5322F470521A432EF478431A439D
:100F00002CF470431A4324F460431A432A4322F416
:100F10004042114302685164002180F83810BDE856
:100F2000B040C8B27047000090F838300222012B60
:100F30001AD080F839200268536823F07003536098
:100F4000D1F800C0536843EA0C035360936823F060
:100F500080039360496893681943916000220121DE
:100F600080F8382080F83910D0B2704710B50446A8
:100F7000002804BF012010BD94F8390028B90020D2
:100F800084F83800204600F00DF80220211D84F876
:100F90003900206800F0B4FC012084F839000020FA
:100FA00010BD000000210068C4F20101884218BF92
:100FB000704780B582B000200022019043F64400C3
:100FC000C4F20200016841F00101016000210068E3
:100FD00000F00100019001981920FFF71DFC192075
:100FE00002B0BDE88040FFF709BC00000068C1689E
:100FF00041F00101C160016841F001010160002080
:101000007047000090F838300222012B00F0DD809C
:1010100080B580F83920012280F838204FF67772A9
:10102000D0F800C0DCF8083023EA0202CCF808202F
:101030000B684F2B28DC1F2B36DD202B63D0302B89
:1010400068D0402B40F0B980D1F804E0C968DCF8E2
:101050002030DCF8202022F00102CCF82020DCF83F
:10106000182022F0F00242EA0111CCF8181023F007
:101070000A0141EA0E01CCF82010DCF8081021F03A
:10108000770141F0470196E06F2B19DD702B48D0B6
:10109000B3F5005F57D0B3F5805F40F08E80DCF889
:1010A000081021F0070186E0002B5ED0102B40F0E5
:1010B0008480DCF8081021F0770141F017017AE014
:1010C000502B59D0602B78D14A68C968DCF82030A1
:1010D00023F01003CCF82030DCF8183023F47043F0
:1010E00043EA0131DCF82030CCF8181023F0A001DD
:1010F00041EA0211CCF82010DCF8081021F0770149
:1011000041F0670157E0DCF8081021F0770141F069
:10111000270150E0DCF8081021F0770141F0370199
:1011200049E0D1E90123C9681A4342EA0121DCF808
:10113000082022F47F421143CCF80810DCF8081094
:1011400041F0770137E0D1E90123C9681A4342EA47
:101150000121DCF8082022F47F421143CCF808106A
:10116000DCF8081041F4804125E0DCF8081021F09B
:10117000770141F007011EE0D1F804E0C968DCF80E
:101180002030DCF8202022F00102CCF82020DCF80E
:10119000182022F0F00242EA0111CCF8181023F0D6
:1011A0000A0141EA0E01CCF82010DCF8081021F009
:1011B000770141F05701CCF808100022012180F896
:1011C000382080F83910BDE88040D0B27047000068
:1011D0007047000010B504460068016911F0020F65
:1011E00019D0C16811F0020F15D06FF00201016132
:1011F00001212176806910F0030F03D02046FFF70C
:10120000E7FF05E0204600F09FF8204600F0CCF90B
:10121000002020762068016911F0040F19D0C16800
:1012200011F0040F15D06FF0040101610221217645
:10123000806910F4407F03D02046FFF7C9FF05E026
:10124000204600F081F8204600F0AEF9002020761C
:101250002068016911F0080F19D0C16811F0080F5A
:1012600015D06FF00801016104212176C06910F0EA
:10127000030F03D02046FFF7ABFF05E0204600F048
:1012800063F8204600F090F900202076206801697C
:1012900011F0100F19D0C16811F0100F15D06FF0B8
:1012A0001001016108212176C06910F4407F03D04C
:1012B0002046FFF78DFF05E0204600F045F8204668
:1012C00000F072F9002020762068016911F0010F0A
:1012D0000AD0C16811F0010F06D06FF00101016161
:1012E000204600F081F92068016911F0800F0AD0D2
:1012F000C16811F0800F06D06FF0800101612046B7
:10130000FFF7E4FD2068016911F0400F0AD0C168C1
:1013100011F0400F06D06FF040010161204600F04F
:10132000C3F92068016911F0200F08BF10BDC16822
:1013300011F0200F00D110BD6FF020010161204697
:10134000BDE81040FFF7C4BD704700002DE9F04331
:1013500090F838500223012D00F004814FEAB202C8
:101360004FF0010C80F83930032A80F838C000F2C1
:10137000F480DFE802F0023D7BBB0268136A23F0D1
:10138000010313621346146AD2F804E053F8185F9D
:101390008F680E6824F0020425F073053C4340F288
:1013A000004745EA060842F48066C4F20107BE42DF
:1013B0000DD1D1F80C90D1E905752EF4407624F0CA
:1013C0000C04374347EA050E29F004052C43C2F804
:1013D00004E0C2F818804F6857631462976947F0B9
:1013E00008079761976927F0040797610969B1E0D9
:1013F0000268136A23F0100313621346146AD2F8CA
:1014000004E053F8185F8F680E6824F0200425F478
:10141000E64544EA071440F2004745EA062842F44C
:101420008066C4F20107BE4210D1D1F80C90D1E918
:1014300005752EF4406624F0C00446EA870747EAA3
:10144000850E6FF04F0505EA09152C43C2F804E03C
:10145000C2F818804F6897631462976947F4006771
:101460009761976927F48067976171E00268136A52
:1014700023F4807313621346146AD2F804E053F81D
:101480001C5F8F680E6824F4007425F0730544EA2D
:10149000072440F2004745EA060842F48066C4F299
:1014A0000107BE4211D1D1F80C90D1E905752EF497
:1014B000405624F4406446EA071740F2FF4647EAE4
:1014C000051E4FEA0925B5432C43C2F804E0C2F8D3
:1014D0001C804F68D7631462D76947F00807D7614B
:1014E000D76927F00407D761096933E00268136AF6
:1014F00023F4805313621346D2F820E0D2F804801C
:1015000053F81C4F0E688F6824F4E6442EF40055FF
:1015100044EA062440F2004645EA073E42F480656C
:10152000C4F20106B54202BF4D6928F4804646EA7E
:101530008518C2F80480D4614C681464C2F820E0B5
:10154000D76947F40067D761D76927F48067D76107
:10155000096909021A6811431960002380F83830BC
:1015600080F839C0D8B2BDE8F083000010B5044659
:10157000002804BF012010BD94F8390028B90020CC
:1015800084F83800204600F00DF80220211D84F870
:101590003900206800F0B4F9012084F839000020F7
:1015A00010BD000070470000704700000068012275
:1015B00002FA01F1026A8A430262026A114340F2AE
:1015C0000042016240F48061C4F20102914202BF14
:1015D000416C41F400414164016841F00101016046
:1015E0000020704700000000F0B581B02DED088BA1
:1015F00000260068C4F20106B04203D0BDEC088B9F
:1016000001B0F0BD40F21007C2F2000797ED010AE9
:1016100097ED021A97ED008A20EE010AFEF7D0FD41
:1016200097ED073AB7EE004A97ED021A97ED042AB4
:1016300028EE00BA84EE033A3BEE029A32EE4B8A71
:1016400031EE03AA1AEE100AFEF7BFFE0446386A0E
:101650000D46FEF7BAFE9FED120B02460B4651EC0B
:10166000100BFEF728FE22462B4687ED059A87EDE4
:10167000068A87ED02AA87ED03BAFEF78BFE0028E3
:1016800004BF0020B860BCEEC90A86ED0D0ABCEEAE
:10169000C80A86ED0E0ABDEC088B01B0F0BD00BF94
:1016A000000000000000F03F70470000FEE700006F
:1016B00082B043F6300100200190C4F202010A68B2
:1016C00042F002020A600A6802F002020192019AE4
:1016D0000090086840F001000860086800F0010010
:1016E0000090009802B070472DE9F0419AB040F2A6
:1016F000380040F2000840F21F31002240F2CF7360
:10170000C2F20000C4F20108C0E90081C0E902236E
:10171000C0E90422FFF72AFC30B142F27C304121BB
:10172000C0F6000000F08AF94FF4805011A9119022
:1017300040F23800C2F20000FFF764FC30B142F220
:101740007C304721C0F6000000F078F940F2380004
:10175000C2F20000FFF70AFF30B142F27C304C21A8
:10176000C0F6000000F06AF940F2380000240FA92A
:10177000C2F20000CDE90F44FFF7D6FB30B142F2D0
:101780007C305321C0F6000000F058F96020CDE90C
:101790000D44CDE90B44CDE9094408A90022089085
:1017A00040F23800C2F20000FFF7D0FD30B142F243
:1017B0007C305F21C0F6000000F040F940F23800B4
:1017C00008A90422C2F20000FFF7C0FD30B142F2C6
:1017D0007C306421C0F6000000F030F940F238009F
:1017E00008A90822C2F20000FFF7B0FD30B142F2B2
:1017F0007C306921C0F6000000F020F940F2380486
:1018000000204FF40051C2F200040590CDE903001E
:10181000CDE90100CDE9061001A92046FFF75AFBEA
:1018200030B142F27C307521C0F6000000F006F9BC
:101830002068404502D01AB0BDE8F081022615AC00
:101840004FF46040002701251696159008F5823068
:101850002146CDE917771995FEF75CFE4FF4E0605D
:1018600016962146159008F58030CDE91777199521
:10187000FEF750FE1AB0BDE8F0810000FEE7000060
:1018800070470000704700007047000080B5FEF709
:1018900021FFBDE88040FFF717BB00004EF68850DF
:1018A0004FF0000CCEF20000016841F470010160BD
:1018B00043F60001C4F202010A6842F001020A6024
:1018C000C1F808C04FF6FF720B68CFF6F6621A40F7
:1018D0000A6043F21002C2F200424A600A6822F42F
:1018E00080220A60C1F80CC04FF0006140F8801CF3
:1018F0007047000040F23800C2F20000FFF76ABCF7
:1019000040F6FF3C0268C4F2000C604526DCB0F1F2
:10191000804F34D040F20043C4F2000398422ED0EE
:1019200040F60003C4F20003984228D041F6FF734A
:10193000C4F2000398422CDC604542DCB0F1804FD9
:1019400064D040F20043C4F2000398425ED040F6F7
:101950000003C4F20003984258D05BE040F6004315
:10196000C4F2000398420AD040F20043C4F20103DB
:10197000984204D00023C4F201039842D6D14B68A8
:1019800022F070021A4341F6FF73C4F2000398423A
:10199000D2DD43F6FF73C4F20103984224DC42F225
:1019A0000003C4F20003984230D00023C4F20103C4
:1019B00098422BD040F20043C4F20103984225D054
:1019C00028E040F60043C4F2000398421ED041F6DE
:1019D0000003C4F20003984218D041F60043C4F259
:1019E0000003984212D015E044F20003C4F2010350
:1019F00098420BD044F60003C4F20103984205D08C
:101A000044F20043C4F20103984203D1CB6822F4AC
:101A100040721A43026040F200438A68C4F2010334
:101A2000C2620A68826240F480629A4204BF096915
:101A30000163012141617047FEE70000FEE70000FD
:101A4000B0B592B040F2100042F29241002344F24D
:101A500000044EF20002C2F20000C4F24901C4F2D6
:101A60004823C4F29C64C4F2FF42C0E907434162C8
:101A700042F292410261C4F29D31C0E90021FEF7B9
:101A800033FE43F64000002402250694C4F202000F
:101A9000016841F080510160006800F080500690BC
:101AA0000698069447F20000C4F20000016841F471
:101AB00080410160006800F4804006900698012093
:101AC0000990102006950A900820CDE90C540E903C
:101AD0005020CDE90F050420119006A8FEF7C0FFA5
:101AE0000F200221CDE901054FF480500394CDE988
:101AF000040001A8FEF7D2FEFEF776FF44F6D351AC
:101B0000C1F26201A0FB01018809FFF7C7F90420B7
:101B1000FFF7B4F94FF0FF3000210022FEF77CFE02
:101B2000FFF7C6FDFFF7E0FD40F23804C2F2000403
:101B30002046FFF75BFA20460021FFF737FD2046DD
:101B40000421FFF733FD00BFFEE702E008C8121FC3
:101B500008C1002AFAD170477047002001E001C196
:101B6000121F002AFBD1704700000000920E493C72
:101B7000B10AC93C2BC3163D2EFB483D752B7B3D5E
:101B800004A9963D80B6AF3D36BDC83D2FBCE13DB2
:101B900073B2FA3D87CF093E8340163EB5AB223E75
:101BA000A2102F3ECF6E3B3EC2C5473E0115543EAC
:101BB000135C603E7F9A6C3ECCCF783EC07D823E07
:101BC000938E883E229A8E3E32A0943E86A09A3E04
:101BD000E59AA03E128FA63ED47CAC3EEF63B23EA7
:101BE0002A44B83E491DBE3E15EFC33E53B9C93E17
:101BF000CA7BCF3E4136D53E80E8DA3E4F92E03E8A
:101C00007533E63EBBCBEB3EEA5AF13ECBE0F63E07
:101C1000275DFC3EE4E7003F3D9C033F824B063FCF
:101C20009BF5083F6B9A0B3FDA390E3FCDD3103F3F
:101C30002A68133FD9F6153FC07F183FC6021B3FE5
:101C4000D17F1D3FCBF61F3F9967223F25D2243F0E
:101C50005636273F1594293F4AEB2B3FDE3B2E3F5C
:101C6000BB85303FC9C8323FF304353F233A373F85
:101C70004268393F3B8F3B3FF9AE3D3F67C73F3F2F
:101C800070D8413F01E2433F03E4453F65DE473FF3
:101C900012D1493FF8BB4B3F029F4D3F207A4F3F47
:101CA0003D4D513F4918533F31DB543FE595563F79
:101CB0005348583F6AF2593F1A945B3F532D5D3F9A
:101CC00005BE5E3F2146603F97C5613F5A3C633F7A
:101CD00059AA643F880F663FD86B673F3CBF683F97
:101CE000A7096A3F0C4B6B3F5E836C3F93B26D3F1D
:101CF0009ED86E3F73F56F3F0809713F5213723FD4
:101D00004714733FDD0B743F0BFA743FC6DE753F1B
:101D100007BA763FC58B773FF853783F9812793FE3
:101D20009DC7793F02737A3FBE147B3FCDAC7B3FAA
:101D3000283B7C3FC9BF7C3FAC3A7D3FCCAB7D3F6D
:101D400023137E3FB0707E3F6DC47E3F580E7F3FB1
:101D50006D4E7F3FAB847F3F0FB17F3F97D37F3F77
:101D600043EC7F3F11FB7F3F0000803F11FB7F3F33
:101D700043EC7F3F97D37F3F0FB17F3FAB847F3FE3
:101D80006D4E7F3F580E7F3F6DC47E3FB0707E3FEB
:101D900023137E3FCCAB7D3FAC3A7D3FC9BF7C3F38
:101DA000283B7C3FCDAC7B3FBE147B3F02737A3F28
:101DB0009DC7793F9812793FF853783FC58B773F9D
:101DC00007BA763FC6DE753F0BFA743FDD0B743FF2
:101DD0004714733F5213723F0809713F73F56F3F09
:101DE0009ED86E3F93B26D3F5E836C3F0C4B6B3F52
:101DF000A7096A3F3CBF683FD86B673F880F663FC3
:101E000059AA643F5A3C633F97C5613F2146603FF2
:101E100005BE5E3F532D5D3F1A945B3F6AF2593F0A
:101E20005348583FE595563F31DB543F4918533FDF
:101E30003D4D513F207A4F3F029F4D3FF8BB4B3FF6
:101E400012D1493F65DE473F03E4453F01E2433F8E
:101E500070D8413F67C73F3FF9AE3D3F3B8F3B3FA7
:101E60004268393F233A373FF304353FC9C8323F10
:101E7000BB85303FDE3B2E3F4AEB2B3F1594293F7D
:101E80005636273F25D2243F9967223FCBF61F3F86
:101E9000D17F1D3FC6021B3FC07F183FD9F6153FBB
:101EA0002A68133FCDD3103FDA390E3F6B9A0B3FB0
:101EB0009BF5083F824B063F3D9C033FE4E7003F14
:101EC000275DFC3ECBE0F63EEA5AF13EBBCBEB3E53
:101ED0007533E63E4F92E03E80E8DA3E4136D53E2D
:101EE000CA7BCF3E53B9C93E15EFC33E491DBE3E26
:101EF0002A44B83EEF63B23ED47CAC3E128FA63E7D
:101F0000E59AA03E86A09A3E32A0943E229A8E3E4A
:101F1000938E883EC07D823ECCCF783E7F9A6C3EC9
:101F2000135C603E0115543EC2C5473ECF6E3B3E3A
:101F3000A2102F3EB5AB223E8340163E87CF093E0E
:101F400073B2FA3D2FBCE13D36BDC83D80B6AF3D12
:101F500004A9963D752B7B3D2EFB483D2BC3163DBA
:101F6000B10AC93C920E493C00000000920E49BCE7
:101F7000B10AC9BC2BC316BD2EFB48BD752B7BBD5A
:101F800004A996BD80B6AFBD36BDC8BD2FBCE1BDAE
:101F900073B2FABD87CF09BE834016BEB5AB22BE71
:101FA000A2102FBECF6E3BBEC2C547BE011554BEA8
:101FB000135C60BE7F9A6CBECCCF78BEC07D82BE03
:101FC000938E88BE229A8EBE32A094BE86A09ABE00
:101FD000E59AA0BE128FA6BED47CACBEEF63B2BEA3
:101FE0002A44B8BE491DBEBE15EFC3BE53B9C9BE13
:101FF000CA7BCFBE4136D5BE80E8DABE4F92E0BE86
:102000007533E6BEBBCBEBBEEA5AF1BECBE0F6BE03
:10201000275DFCBEE4E700BF3D9C03BF824B06BFCB
:102020009BF508BF6B9A0BBFDA390EBFCDD310BF3B
:102030002A6813BFD9F615BFC07F18BFC6021BBFE1
:10204000D17F1DBFCBF61FBF996722BF25D224BF0A
:10205000563627BF159429BF4AEB2BBFDE3B2EBF58
:10206000BB8530BFC9C832BFF30435BF233A37BF81
:10207000426839BF3B8F3BBFF9AE3DBF67C73FBF2B
:1020800070D841BF01E243BF03E445BF65DE47BFEF
:1020900012D149BFF8BB4BBF029F4DBF207A4FBF43
:1020A0003D4D51BF491853BF31DB54BFE59556BF75
:1020B000534858BF6AF259BF1A945BBF532D5DBF96
:1020C00005BE5EBF214660BF97C561BF5A3C63BF76
:1020D00059AA64BF880F66BFD86B67BF3CBF68BF93
:1020E000A7096ABF0C4B6BBF5E836CBF93B26DBF19
:1020F0009ED86EBF73F56FBF080971BF521372BFD0
:10210000471473BFDD0B74BF0BFA74BFC6DE75BF17
:1021100007BA76BFC58B77BFF85378BF981279BFDF
:102120009DC779BF02737ABFBE147BBFCDAC7BBFA6
:10213000283B7CBFC9BF7CBFAC3A7DBFCCAB7DBF69
:1021400023137EBFB0707EBF6DC47EBF580E7FBFAD
:102150006D4E7FBFAB847FBF0FB17FBF97D37FBF73
:1021600043EC7FBF11FB7FBF000080BF11FB7FBF2F
:1021700043EC7FBF97D37FBF0FB17FBFAB847FBFDF
:102180006D4E7FBF580E7FBF6DC47EBFB0707EBFE7
:1021900023137EBFCCAB7DBFAC3A7DBFC9BF7CBF34
:1021A000283B7CBFCDAC7BBFBE147BBF02737ABF24
:1021B0009DC779BF981279BFF85378BFC58B77BF99
:1021C00007BA76BFC6DE75BF0BFA74BFDD0B74BFEE
:1021D000471473BF521372BF080971BF73F56FBF05
:1021E0009ED86EBF93B26DBF5E836CBF0C4B6BBF4E
:1021F000A7096ABF3CBF68BFD86B67BF880F66BFBF
:1022000059AA64BF5A3C63BF97C561BF214660BFEE
:1022100005BE5EBF532D5DBF1A945BBF6AF259BF06
:10222000534858BFE59556BF31DB54BF491853BFDB
:102230003D4D51BF207A4FBF029F4DBFF8BB4BBFF2
:1022400012D149BF65DE47BF03E445BF01E243BF8A
:1022500070D841BF67C73FBFF9AE3DBF3B8F3BBFA3
:10226000426839BF233A37BFF30435BFC9C832BF0C
:10227000BB8530BFDE3B2EBF4AEB2BBF159429BF79
:10228000563627BF25D224BF996722BFCBF61FBF82
:10229000D17F1DBFC6021BBFC07F18BFD9F615BFB7
:1022A0002A6813BFCDD310BFDA390EBF6B9A0BBFAC
:1022B0009BF508BF824B06BF3D9C03BFE4E700BF10
:1022C000275DFCBECBE0F6BEEA5AF1BEBBCBEBBE4F
:1022D0007533E6BE4F92E0BE80E8DABE4136D5BE29
:1022E000CA7BCFBE53B9C9BE15EFC3BE491DBEBE22
:1022F0002A44B8BEEF63B2BED47CACBE128FA6BE79
:10230000E59AA0BE86A09ABE32A094BE229A8EBE46
:10231000938E88BEC07D82BECCCF78BE7F9A6CBEC5
:10232000135C60BE011554BEC2C547BECF6E3BBE36
:10233000A2102FBEB5AB22BE834016BE87CF09BE0A
:1023400073B2FABD2FBCE1BD36BDC8BD80B6AFBD0E
:1023500004A996BD752B7BBD2EFB48BD2BC316BDB6
:10236000B10AC9BC920E49BC000000800000000008
:102370000000000001020304060708092E2E2F5357
:1023800072632F74696D2E6300000000B023000893
:1023900000000020100000004A1B0008C0230008B5
:1023A00010000020680400005A1B00080000000014
:1023B0000100000010000000000000000024F400F4
:040000050800018965
:00000001FF
